:100000000C9457010C9488010C9488010C9488017D
:100010000C9488010C9488010C9488010C9488013C
:100020000C9488010C9488010C9488010C9488012C
:100030000C9488010C9488010C9488010C9488011C
:100040000C9488010C94A7070C9488010C948801E7
:100050000C9488010C9488010C9488010C94D306AC
:100060000C9488010C949D060C9473060C948801E2
:100070000C9488010C9488010C9488010C948801DC
:100080000C9479070C9488010C9488010C948801D5
:100090000C9488010C9488010C9488010C948801BC
:1000A0000C9488010C9488010C944B070C948801E3
:1000B0000C9488010C9488010C9488010C941D0701
:1000C0000C9488010C9488010C9488010C9488018C
:1000D0000C9488010C9488010C9488010C9488017C
:1000E0000C9488010C9401030C94EE020C94D3033D
:1000F0000C94EF030C9456040C94EA020C94DD0368
:100100000C942E040C9405030C94F7020C94BC037D
:100110000C9413030C94C4030C94E2020C94240476
:100120000C94DC020C94C6010C94FB020C94B701F5
:100130000C94C9030C944C040C94DA010C946D02D9
:100140000C9415040C94F1020C941D030C940B04F4
:100150000C9417030C9421030C941A080C940903B3
:100160000C9401040C940F030C94F7030C948A0173
:100170000C94E7030C9442040C9420020C94380471
:100180000C941C030C94E6020C94E801000021007E
:10019000240027002A002D00300033000101000058
:1001A000040107010A0100002200250028002B009D
:1001B0002E003100340002010000050108010B018E
:1001C00000000A0B02090C0D0E08070304010000D1
:1001D000000000000000000000000000000000001F
:1001E00000000000000000000000000012111000DC
:1001F00000000000000000000000000000000000FF
:10020000000000000000000020002300260029005C
:100210002C002F003200000100000301060109013B
:1002200005050505070508080808020202020A0A72
:100230000808040404040101010101010101030390
:10024000030303030303040707070C0C0C0C0C0C3B
:100250000C0C0202020206060606060606060B0B38
:100260000B0B0B0B0B0B0102102020080810204079
:10027000102040800201020108040201010204086A
:1002800010204080804020100804020180040201F8
:100290008040201008040201080402010102040841
:1002A0001020408001020408102040801A08112408
:1002B0001FBECFEFD1E2DEBFCDBF00E00CBF12E02A
:1002C000A0E0B2E0E2E4F9E100E00BBF02C0079079
:1002D0000D92A231B107D9F723E0A2E1B2E001C04B
:1002E0001D92A535B207E1F711E0C7E5D1E000E0C6
:1002F00006C021970109802FFE010E94970CC63588
:10030000D10780E00807A9F70E9491080C949F0C80
:100310000C940000AF92BF92CF92DF92EF92FF92C7
:100320000F931F93CF93DF936C017B018B01040F1D
:10033000151FEB015E01AE18BF08C017D10759F0B9
:100340006991D601ED91FC910190F081E02DC601FB
:100350001995892B79F7C501DF91CF911F910F91E5
:10036000FF90EF90DF90CF90BF90AF900895FC0189
:10037000538D448D252F30E0842F90E0821B930B0A
:10038000541710F0CF96089501970895FC01918DB0
:10039000828D981761F0A28DAE0FBF2FB11D5D96B3
:1003A0008C91928D9F5F9F73928F90E008958FEF55
:1003B0009FEF0895FC01918D828D981731F0828D09
:1003C000E80FF11D858D90E008958FEF9FEF089560
:1003D000FC01918D228D892F90E0805C9F4F821BC4
:1003E00091098F739927089581E292E00E94E801B4
:1003F00021E0892B09F420E0822F0895FC01A48DCF
:10040000A80FB92FB11DA35ABF4F2C91848D90E036
:1004100001968F739927848FA689B7892C93A08919
:10042000B1898C91837080648C93938D848D9813A3
:1004300006C00288F389E02D80818F7D8083089536
:10044000EF92FF920F931F93CF93DF93EC0181E024
:10045000888F9B8D8C8D98131AC0E889F9898081CB
:1004600085FF15C09FB7F894EE89FF896083E889FE
:10047000F98980818370806480839FBF81E090E0F0
:10048000DF91CF911F910F91FF90EF900895F62E7D
:100490000B8D10E00F5F1F4F0F731127E02E8C8D17
:1004A0008E110CC00FB607FCFACFE889F98980815C
:1004B00085FFF5CFCE010E94FE01F1CFEB8DEC0F51
:1004C000FD2FF11DE35AFF4FF0829FB7F8940B8F79
:1004D000EA89FB8980818062CFCFCF93DF93EC01E3
:1004E000888D8823B9F0AA89BB89E889F9898C911C
:1004F00085FD03C0808186FD0DC00FB607FCF7CFD8
:100500008C9185FFF2CF808185FFEDCFCE010E94D7
:10051000FE01E9CFDF91CF91089580E090E0892B33
:1005200029F00E94F40181110E94000080E090E017
:10053000892B49F080E090E0892B29F00E9400008F
:1005400081110E94000080E090E0892B49F080E05A
:1005500090E0892B29F00E94000081110E94000088
:1005600080E090E0892B49F080E090E0892B29F031
:100570000E94000081110C94000008958150823186
:1005800008F05AC0E82FF0E08827E653FD4F8F4F60
:100590000C94970CEA02EE02DC02E202E6021C0373
:1005A000F102F702FB020103050309030F03130322
:1005B0001C0317031D032103809180008F77809314
:1005C00080000895809180008F7DF9CF8091800018
:1005D000877FF5CF84B58F7784BD089584B58F7DEF
:1005E000FBCF8091B0008F778093B0000895809109
:1005F000B0008F7DF9CF809190008F77809390002D
:100600000895809190008F7DF9CF80919000877F31
:10061000F5CF8091A0008F778093A00008958091FE
:10062000A0008F7DF9CF8091A000877FF5CF8091CA
:1006300020018F77809320010895809120018F7D84
:10064000F9CF80912001877FF5CF1F93CF93DF9360
:10065000282F30E0F901E054FE4F8491F901EA5966
:10066000FD4FD491F901E05EFD4FC491CC23A9F078
:10067000162F81110E94BE02EC2FF0E0EE0FFF1F3B
:10068000EA55FE4FA591B4918FB7F894EC911111F2
:1006900008C0D095DE23DC938FBFDF91CF911F91EF
:1006A0000895DE2BF8CFCF93DF9390E0FC01EA5959
:1006B000FD4F2491805E9D4FFC0184918823D1F0F1
:1006C00090E0880F991FFC01E457FE4FA591B4916B
:1006D000FC01EA55FE4FC591D49161110EC09FB740
:1006E000F8948C91E22FE0958E238C932881E2235D
:1006F000E8839FBFDF91CF9108958FB7F894EC9175
:10070000E22BEC938FBFF6CF1F93CF93DF93182F7D
:10071000EB0161E00E945303209739F460E0812FE0
:10072000DF91CF911F910C942503CF3FD10511F498
:1007300061E0F5CFE12FF0E0E054FE4FE491E150AD
:10074000E23108F0B3C0F0E08827E655FC4F8F4F48
:100750000C94970CBC03C403C903D303DD035604F4
:10076000E703EF03F70301040B04150424042E042C
:100770005604380442044C0484B5806884BDC7BD67
:10078000DF91CF911F91089584B5806284BDC8BD6B
:10079000F7CF80918000806880938000D09389009B
:1007A000C0938800EDCF80918000806280938000AC
:1007B000D0938B00C0938A00E3CF80918000886043
:1007C00080938000D0938D00C0938C00D9CF80910E
:1007D000B00080688093B000C093B300D1CF809107
:1007E000B00080628093B000C093B400C9CF809104
:1007F0009000806880939000D0939900C0939800F7
:10080000BFCF80919000806280939000D0939B0036
:10081000C0939A00B5CF809190008860809390003B
:10082000D0939D00C0939C00ABCF8091A0008068C6
:100830008093A0008091A0008F7B8093A000D09334
:10084000A900C093A8009CCF8091A00080628093F3
:10085000A000D093AB00C093AA0092CF8091A000DB
:1008600088608093A000D093AD00C093AC0088CF87
:1008700080912001806880932001D0932901C0934A
:1008800028017ECF80912001806280932001D09347
:100890002B01C0932A0174CF80912001886080933E
:1008A0002001D0932D01C0932C016ACFC038D1050F
:1008B0000CF03ECF33CF8F929F92AF92BF92FF92B8
:1008C0000F931F93CF93DF93FC01F0808FE28F157E
:1008D00008F44FC0828108E512E0081B110987FD6A
:1008E0001395000F111F000F111F8181C8E8D0E080
:1008F000C81BD10987FDD395CC0FDD1FCC0FDD1FA1
:100900004E010D2E000CAA08BB08DB01653B7105EA
:1009100014F0A4EBB0E09801012E000C440B550B31
:10092000281939094A095B090E94BC0A24EB30E006
:1009300040E050E00E94920A820E931EA41EB51E53
:100940008C169D062CF0E801801691060CF4E4014B
:100950002297CC0FDD1F2FB7F8948F2D90E0FC016C
:10096000EE0FFF1FE80FF91FE254FD4FD283C18342
:100970002FBFDF91CF911F910F91FF90BF90AF904C
:100980009F908F9008951F93CF93DF93EC01162FC4
:100990008881803308F04EC061E0812F0E945303AC
:1009A0008881282F30E0F901EE0FFF1FE20FF31FBF
:1009B000E254FD4F1F736081607C612B608319825C
:1009C0001A822CE0622F0E948B0C829FB0011124AE
:1009D00030E020E0AB01420F531FFA01EE0FFF1F82
:1009E000E40FF51FE254FD4F908196FD16C02F5F76
:1009F0003F4F2C30310571F7813009F5109280009E
:100A000082E0809381001092850010928400B19A58
:100A100080916F00826080936F00E8818E2F90E05C
:100A2000FC01EE0FFF1FE80FF91FE254FD4F80811C
:100A3000806480838881DF91CF911F9108958230F7
:100A400061F41092900080939100109295001092A2
:100A5000940088BB80937100E0CF833069F41092DA
:100A6000A00082E08093A1001092A5001092A40043
:100A700089BB80937200D1CF8111CFCF109220011A
:100A800082E08093210110922501109224018ABBFB
:100A900080937300C2CFAF92BF92CF92DF92EF925A
:100AA000FF920F931F93CF93DF936B017A01EC01B9
:100AB000CE5EDD4F28813CE0389F8001399F100DCC
:100AC0001124A0904E03B12C27FF1FC0FB011182FF
:100AD000108288818F5F888388819801280F311D5B
:100AE00087FD3A95F6012A153B051CF488818C3068
:100AF000C4F180819181049680349C4908F473C0CC
:100B0000F60180819181049670C088819801280F38
:100B1000311D87FD3A952A153B05DCF68881A80131
:100B2000480F511D87FD5A95FA01EE0FFF1FE40F84
:100B3000F51FE254FD4F808186FFCBCF8881F801FD
:100B4000E80FF11D87FDFA95CF01EE0FFF1FE80FAB
:100B5000F91FE254FD4F808160E08F730E942503EE
:100B6000B8CF808191812881A801420F511D27FDB6
:100B70005A959A01FA01EE0FFF1FE20FF31FE2549C
:100B8000FD4F21813281820F931FF7019183808372
:100B900088819801280F311D87FD3A95F901EE0FE4
:100BA000FF1FE20FF31FE254FD4F808186FF22C03A
:100BB0008881080F111D87FD1A95F801EE0FFF1FA0
:100BC000E00FF11FE254FD4F808161E08F73DF91F0
:100BD000CF911F910F91FF90EF90DF90CF90BF903A
:100BE000AF900C94250380E49CE9F7019183808306
:100BF0008FEF8883DF91CF911F910F91FF90EF903E
:100C0000DF90CF90BF90AF900895CF93DF93EB012B
:100C100061E08130910589F060E0029771F461E054
:100C200087E00E94250360E088E00E942503BE0162
:100C300089E0DF91CF910C94840388E00E94250322
:100C400060E087E0F2CFCF93DF93EB018130910535
:100C500071F461E08CE00E94250360E08BE00E946B
:100C60002503BE018AE0DF91CF910C94840361E0FB
:100C7000029709F060E08BE00E94250360E08CE0C1
:100C8000EECF70E060E082E593E00E945B0468E1F3
:100C900071E08FE493E00C945B040F931F9390E05A
:100CA000FC01EA59FD4F6491FC01E05EFD4FE491C7
:100CB000F0E0EE0FFF1FEA5FFD4F8591949100E495
:100CC00012E42FE030E0462F0E94D5076115710530
:100CD0008105910529F06F5F7F4F8F4F9F4F9F7068
:100CE0001F910F9108951F920F920FB60F9211242A
:100CF0000BB60F922F933F934F935F936F937F9316
:100D00008F939F93AF93BF93EF93FF9381E292E012
:100D10000E94FE01FF91EF91BF91AF919F918F9142
:100D20007F916F915F914F913F912F910F900BBEEB
:100D30000F900FBE0F901F9018951F920F920FB635
:100D40000F9211240BB60F922F938F939F93EF93D3
:100D5000FF93E0913102F09132028081E0913702FD
:100D6000F091380282FD1DC0908180913A028F5F20
:100D70008F7320913B02821741F0E0913A02F0E03C
:100D8000EF5DFD4F958F80933A02FF91EF919F9118
:100D90008F912F910F900BBE0F900FBE0F901F9051
:100DA00018958081F2CF1F920F920FB60F921124E7
:100DB0002F933F938F939F93AF93BF9380911B0289
:100DC00090911C02A0911D02B0911E0230911A0256
:100DD00023E0230F2D3758F50196A11DB11D209357
:100DE0001A0280931B0290931C02A0931D02B093E1
:100DF0001E028091160290911702A0911802B091E4
:100E000019020196A11DB11D80931602909317023D
:100E1000A0931802B0931902BF91AF919F918F9147
:100E20003F912F910F900FBE0F901F90189526E8BD
:100E3000230F0296A11DB11DD2CF1F920F920FB6A4
:100E40000F9211240BB60F922F933F934F935F9302
:100E50006F937F938F939F93AF93BF93EF93FF9382
:100E600048E251E064E271E090E080E00E944B05CE
:100E7000FF91EF91BF91AF919F918F917F916F9172
:100E80005F914F913F912F910F900BBE0F900FBE2E
:100E90000F901F9018951F920F920FB60F9211246A
:100EA0000BB60F922F933F934F935F936F937F9364
:100EB0008F939F93AF93BF93EF93FF9348EA50E0D4
:100EC00064EA70E083E090E00E944B05FF91EF91AF
:100ED000BF91AF919F918F917F916F915F914F9152
:100EE0003F912F910F900BBE0F900FBE0F901F9050
:100EF00018951F920F920FB60F9211240BB60F92F6
:100F00002F933F934F935F936F937F938F939F9311
:100F1000AF93BF93EF93FF9348E950E064E970E02B
:100F200082E090E00E944B05FF91EF91BF91AF915D
:100F30009F918F917F916F915F914F913F912F91F1
:100F40000F900BBE0F900FBE0F901F9018951F9221
:100F50000F920FB60F9211240BB60F922F933F935F
:100F60004F935F936F937F938F939F93AF93BF93B1
:100F7000EF93FF9348E850E064E870E081E090E090
:100F80000E944B05FF91EF91BF91AF919F918F917F
:100F90007F916F915F914F913F912F910F900BBE79
:100FA0000F900FBE0F901F901895CF92DF92EF9287
:100FB000FF920F931F93E82FF92F05C001501109DD
:100FC0002109310961F1908196239417B9F305C085
:100FD000015011092109310911F1908196239413CF
:100FE000F7CFC12CD12CE12CF12C0AC08FEFC81AFD
:100FF000D80AE80AF80A0C151D052E053F0579F0F8
:1010000080818623841791F36C2D7D2D8E2D9F2D4D
:101010001F910F91FF90EF90DF90CF90089560E0C7
:1010200070E080E090E01F910F91FF90EF90DF90D3
:10103000CF900895109224021092230288EE93E03C
:10104000A0E0B0E08093250290932602A0932702AF
:10105000B093280284E092E09093220280932102D0
:1010600085EC90E090932E0280932D0284EC90E02A
:101070009093300280932F0280EC90E090933202A4
:101080008093310281EC90E090933402809333029C
:1010900082EC90E0909336028093350286EC90E0EB
:1010A000909338028093370210923A0210923B02DA
:1010B00010923C0210923D0280914E03803348F51D
:1010C00091E0980F90934E038093520390E0FC01BF
:1010D000EE0FFF1FE80FF91FE254FD4F88EB9BE076
:1010E0009283818380914E038033B8F491E0980F0E
:1010F00090934E0380934F0390E0FC01EE0FFF1F8F
:10110000E80FF91FE254FD4F88EB9BE09283818347
:1011100008958FEF80935203E5CF8FEF80934F03B5
:101120000895789484B5826084BD84B5816084BD5F
:1011300085B5826085BD85B5816085BD80916E0075
:10114000816080936E0010928100809181008260A6
:1011500080938100809181008160809381008091E3
:1011600080008160809380008091B10084608093D2
:10117000B1008091B00081608093B00080919100B7
:1011800082608093910080919100816080939100B2
:10119000809190008160809390008091A100826096
:1011A0008093A1008091A10081608093A100809133
:1011B000A00081608093A0008091210182608093D3
:1011C0002101809121018160809321018091200182
:1011D00081608093200180917A00846080937A00FE
:1011E00080917A00826080937A0080917A00816099
:1011F00080937A0080917A00806880937A001092C0
:10120000C10061E08CE00E94530361E08BE00E942A
:10121000530361E088E00E94530361E087E00E948D
:10122000530361E08AE00E94530361E089E00E9479
:10123000530361E084E00E94530361E087E30E946E
:10124000530360E088E30E94530361E089E30E9456
:10125000530360E08AE30E94530360E086E30E9448
:10126000530361E082E00E94530361E083E00E9447
:10127000530365E070E082E593E00E94C30466E0FA
:1012800070E08FE493E00E94C30470E060E082E5C8
:1012900093E00E945B0468E171E08FE493E00E94B8
:1012A0005B0496EF292E91E0392E2CE9C22E22E024
:1012B000D22E36E5E32E32E0F32ECFE0D0E003E28B
:1012C00010E0F1018491F601B490F701A490AA20F6
:1012D00009F4A4C081110E94BE02EA2DF0E0EE0FD5
:1012E000FF1FEA5FFD4FA591B4918C91B82209F4DC
:1012F00095C081E292E00E94E8011816190604F5F3
:1013000081E292E00E94C6019093200280931F0226
:1013100070E060E090E080E00E94230670E060E012
:1013200090E080E00E94050660E084E00E942503D2
:1013300060E083E00E94250360E082E00E942503D4
:1013400080911F02909120028133910571F46FEF1B
:1013500070E081E090E00E9423066FEF70E081E092
:1013600090E00E94050661E054C08233910591F43B
:101370006FEF70E082E090E00E9423066FEF70E074
:1013800082E090E00E94050661E084E00E9425036F
:1013900060E014C083339105D9F46FEF70E082E010
:1013A00090E00E9423066FEF70E081E090E00E94E1
:1013B000050661E084E00E94250361E083E00E946D
:1013C000250361E082E00E9425030E948D0279CF0F
:1013D0008433910559F46FEF70E081E090E00E9452
:1013E00023066FEF70E082E090E0E1CFC09769F7ED
:1013F00070E060E090E080E00E94230670E060E032
:1014000090E080E00E94050660E084E00E942503F1
:1014100060E083E00E94250360E0D4CF60E087E3D2
:101420000E942503CE010197F1F761E087E30E9456
:101430002503C8010197F1F760E087E30E942503C7
:1014400088E30E944D064B015C0160E089E30E9445
:101450002503CE010197F1F761E089E30E9425039E
:10146000C8010197F1F760E089E30E9425038AE350
:101470000E944D062B013C01C501B4010E946C0B7A
:1014800020E030E040E05FE30E941E0C2DEC3CECDD
:1014900048EE51E40E94FA0A20E030E040EA51E4CC
:1014A0000E94F50A87FD18C0C301B2010E946C0BAF
:1014B00020E030E040E05FE30E941E0C2DEC3CECAD
:1014C00048EE51E40E94FA0A20E030E040EA51E49C
:1014D0000E94F50A87FF13C070E060E090E080E0B2
:1014E0000E94230670E060E090E080E00E94050624
:1014F00061E084E00E9425030E94410649CF6FEF1E
:1015000070E081E090E00E9423066FEF70E081E0E0
:1015100090E00E9405060E94410660E084E00E947F
:10152000250321CF052E97FB1EF400940E94A90AE3
:1015300057FD07D00E94C40A07FC03D04EF40C9458
:10154000A90A50954095309521953F4F4F4F5F4FD9
:10155000089590958095709561957F4F8F4F9F4F1F
:1015600008950E94E60AA59F900DB49F900DA49F38
:10157000800D911D11240895B7FF0C94B10A0E94AB
:10158000B10A821B930B0895A1E21A2EAA1BBB1B62
:10159000FD010DC0AA1FBB1FEE1FFF1FA217B3073F
:1015A000E407F50720F0A21BB30BE40BF50B661F55
:1015B000771F881F991F1A9469F760957095809519
:1015C00090959B01AC01BD01CF010895A29FB00190
:1015D000B39FC001A39F700D811D1124911DB29F67
:1015E000700D811D1124911D08950E94A90B08F40E
:1015F00081E008950E940E0B0C94E40B0E94DD0B19
:1016000058F00E94D60B40F029F45F3F29F00C946B
:10161000CD0B51110C94180C0C94D30B0E94F50BAC
:1016200068F39923B1F3552391F3951B550BBB2711
:10163000AA2762177307840738F09F5F5F4F220F56
:10164000331F441FAA1FA9F335D00E2E3AF0E0E84D
:1016500032D091505040E695001CCAF72BD0FE2F97
:1016600029D0660F771F881FBB1F2617370748072B
:10167000AB07B0E809F0BB0B802DBF01FF279358E3
:101680005F4F3AF09E3F510578F00C94CD0B0C94CF
:10169000180C5F3FE4F3983ED4F3869577956795F1
:1016A000B795F7959F5FC9F7880F911D9695879518
:1016B00097F90895E1E0660F771F881FBB1F621737
:1016C00073078407BA0720F0621B730B840BBA0BF5
:1016D000EE1F88F7E0950895E89409C097FB3EF463
:1016E00090958095709561957F4F8F4F9F4F99236F
:1016F000A9F0F92F96E9BB279395F69587957795ED
:101700006795B795F111F8CFFAF4BB0F11F460FFAC
:101710001BC06F5F7F4F8F4F9F4F16C0882311F004
:1017200096E911C0772321F09EE8872F762F05C018
:10173000662371F096E8862F70E060E02AF09A95B3
:10174000660F771F881FDAF7880F9695879597F9A8
:101750000895990F0008550FAA0BE0E8FEEF161642
:101760001706E807F907C0F012161306E407F50795
:1017700098F0621B730B840B950B39F40A2661F009
:10178000232B242B252B21F408950A2609F4A140AC
:10179000A6958FEF811D811D089597F99F6780E8B9
:1017A00070E060E008959FEF80EC089500240A94B3
:1017B0001616170618060906089500240A9412162C
:1017C0001306140605060895092E0394000C11F45F
:1017D000882352F0BB0F40F4BF2B11F460FF04C00C
:1017E0006F5F7F4F8F4F9F4F089557FD9058440F65
:1017F000551F59F05F3F71F04795880F97FB991F70
:1018000061F09F3F79F0879508951216130614062C
:10181000551FF2CF4695F1DF08C0161617061806B9
:10182000991FF1CF86957105610508940895E89494
:10183000BB2766277727CB0197F908950E94310CC3
:101840000C94E40B0E94D60B38F00E94DD0B20F0C4
:10185000952311F00C94CD0B0C94D30B11240C9404
:10186000180C0E94F50B70F3959FC1F3950F50E093
:10187000551F629FF001729FBB27F00DB11D639F42
:10188000AA27F00DB11DAA1F649F6627B00DA11DE8
:10189000661F829F2227B00DA11D621F739FB00D8E
:1018A000A11D621F839FA00D611D221F749F3327FE
:1018B000A00D611D231F849F600D211D822F762F97
:1018C0006A2F11249F5750409AF0F1F088234AF074
:1018D000EE0FFF1FBB1F661F771F881F91505040E0
:1018E000A9F79E3F510580F00C94CD0B0C94180C79
:1018F0005F3FE4F3983ED4F3869577956795B79567
:10190000F795E7959F5FC1F7FE2B880F911D969580
:10191000879597F90895991B79E004C0991F961748
:1019200008F0961B881F7A95C9F780950895EE0FE9
:10193000FF1F881F8BBF0790F691E02D1994F89434
:02194000FFCFD7
:101942000000000020028A01B7016D02E801C60111
:02195200DA01B8
:00000001FF
